S315080040009845002001410008E9F300083DEA000848
S31508004010E5F30008A9560008017A01080000000027
S315080040200000000000000000000000001917010849
S31508004030457B0008000000003DF5000801680108FE
S315080040401B4100081B4100081B410008CD0401085C
S315080040501B4100081B410008818100081B4100081C
S315080040601B41000829820008378200081B41000806
S315080040701B4100081B4100081B4100081B410008A2
S315080040801B4100081B4100081B4100087776010800
S31508004090797601081B4100081B4100084582000883
S315080040A01B4100081B4100081B4100081B41000872
S315080040B01B4100081B4100081B4100081B41000862
S315080040C01B4100081B4100081B4100081B41000852
S315080040D01B410008F56E0108B56F01087D700108DF
S315080040E091810008090101081B410008DFF80CD07E
S315080040F000F014FA004800479D9B010898450020E7
S315080041000648804706480047FEE7FEE7FEE7FEE763
S31508004110FEE7FEE7FEE7FEE7FEE7FEE78168010841
S31508004120ED40000840EA01039B0703D009E008C9EF
S31508004130121F08C0042AFAD203E011F8013B00F85E
S31508004140013B521EF9D27047D2B201E000F8012BAA
S31508004150491EFBD270470022F6E710B513460A46F9
S3150800416004461946FFF7F0FF204610BD2DE9FE4F1D
S31508004170804681EA0300C00F0C46009021F00041FA
S3150800418023F00045B8EB0200A94105D24046214676
S3150800419090461C460B46024623F00040104347D083
S315080041A0270DC7F30A00C3F30A510290401A01907B
S315080041B040286BDAC3F3130040F4801B009892463C
S315080041C020B10023D2EB030A63EB0B0B0198594687
S315080041D0C0F14002504600F012F906460D46504618
S315080041E05946019A00F02AF910EB080061410024AB
S315080041F087EA115284EAE7731A4340D0009A62B3F9
S31508004200019A012A4FEA075215DC001B61EB0201ED
S315080042104FF0004202EA0752CDE90042001C41F580
S31508004220801132462B4600F02AF903B0BDE8F08F1C
S3150800423040462146F9E7001B61EB0201001C41F5E7
S31508004240801300185B412018A2F5001747EB0301FD
S3150800425040EAD570B6196D4111E06D084FEA360689
S3150800426045EAC0754FEA0752001B61EB0201001CC4
S3150800427041F5801149084FEA30000019514132468C
S315080042802B4603B0BDE8F04F00F0EAB800980122CB
S3150800429040000023D0EB020263EBE073009821464E
S315080042A04FEAE074B8EB000061EB0401E9E783F03C
S315080042B000435BE781F0004158E72DE9FE4F81EAAC
S315080042C0030404F0004421F0004100944FF0000B71
S315080042D023F0004350EA01045ED052EA03045BD09F
S315080042E0C3F30A54C1F30A552C44A4F2F3340194D7
S315080042F0A0FB0254C1F3130141F48011C3F3130365
S3150800430043F4801301FB024400FB034E840A970A18
S3150800431044EA815447EA8357A4FB076802958D0A45
S3150800432005FB07854FEA932C04FB0C542705029DD1
S315080043304FEA065847EA1637B5EB08056EEB070C41
S31508004340870E920E47EA811742EA8312A7FB0201FB
S31508004350B6EB0B0164EB00042B0D43EA0C335E1835
S3150800436044EB1C50DA465146E7FB0201C5F3130439
S315080043704FEA0B3343EA14534FEA0432019C43EAEB
S315080043800603A4F10C040294009CCDE900B400F0E5
S3150800439076F803B0BDE8F08F00200146F9E70EB5C0
S315080043A0C10F80EAE0700844CA07002140F233438F
S315080043B08DE80E000A460B4600F061F803B000BD12
S315080043C070B5C1F30A5201F000450024C1F3130188
S315080043D040F2FF3341F480119A4201DA002070BDA1
S315080043E040F233439A42A2F2334203DC524200F0CF
S315080043F015F800E090402C43F1D0404270BD202AC9
S3150800440004DB203A00FA02F1002070479140C2F11D
S31508004410200320FA03F3194390407047202A04DB4F
S31508004420203A21FA02F00021704721FA02F3D0401F
S31508004430C2F120029140084319467047202A06DB3C
S31508004440CB17203A41FA02F043EAE07306E041FA54
S3150800445002F3D040C2F12002914008431946704742
S3150800446010B5141E73F1000408DA401C41F100016E
S3150800447092185B411A4301D120F0010010BD2DE9C5
S31508004480F04D92469B4611B1B1FA81F202E0B0FABC
S3150800449080F220329046FFF7B2FF04460F4640EA04
S315080044A00A0041EA0B0153465A46084313D01146FF
S315080044B053EA010019D0C8F140025046FFF7AEFF93
S315080044C005460E46504659464246FFF798FF0843AA
S315080044D005D0012004E020463946BDE8F08D0020CD
S315080044E0054346EAE0762C4337430A986305E40A0F
S315080044F0A0EB08000022FD0A44EA47540A3002D518
S3150800450000200146E9E7010510196941DDE908457A
S3150800451000196941BDE8F04DA2E70000064C074DB9
S3150800452006E0E06840F0010394E807009847103475
S31508004530AC42F6D3FFF7DEFD80F20108A0F20108CF
S3150800454070B58C1810F8015B15F0070301D110F847
S31508004550013B2A1106D110F8012B03E010F8016B74
S3150800456001F8016B5B1EF9D12B0705D40023521EF7
S315080045700DD401F8013BFAE710F8013BCB1A921C5F
S3150800458003E013F8015B01F8015B521EF9D5A1425D
S31508004590D8D3002070BD21B1826842F00102826042
S315080045A003E0826822F001028260704710B5044673
S315080045B01248844208D1012140150BF0F7FA002170
S315080045C060150BF0F3FA17E00D48844208D1012173
S315080045D000150BF0EBFA002120150BF0E7FA0BE0BB
S315080045E00848844208D10121C8030BF0DFFA0021EC
S315080045F04FF400400BF0DAFA10BD00000024014029
S3150800460000280140003C0140014600208A6802F06B
S3150800461004020AB1012000E0002070470146C86C78
S3150800462080B270470246002013680B400BB1012088
S3150800463000E000207047014600208A6802F0080260
S315080046400AB1012000E000207047000030B502469C
S315080046500020002350680F4C20400D790C6844EA6E
S3150800466005242043506090680B4C2040D1E9025441
S315080046702C434D7944EA450420439060D06A20F4DF
S3150800468070000C7C641EE4B2234340EA0350D062F7
S3150800469030BD0000FFFEF0FFFDF7F1FF10B508F092
S315080046A0F9FF30B12148007840F001001F49087031
S315080046B005E01E48007800F0FE001C49087008F066
S315080046C0F5FF30B11948007840F002001749087024
S315080046D005E01648007800F0FD001449087004212A
S315080046E0134805F039FC30B11048007840F0100046
S315080046F00E49087005E00D48007800F0EF000B49F8
S3150800470008704FF400710B4805F026FC30B10748D5
S31508004710007840F020000549087005E00348007855
S3150800472000F0DF000149087010BD000056000020A7
S315080047300014014000100140F0B504460D46002063
S315080047400021092D11DDE068A5F10A0606EB4607EA
S31508004750072606FA07F18843A5F10A0606EB460678
S3150800476003FA06F10843E0600CE0206905EB45070B
S31508004770072606FA07F1884305EB450603FA06F10C
S3150800478008432061072A0FDA606B561E06EB860778
S315080047901F2606FA07F18843561E06EB860605FA13
S315080047A006F10843606322E00D2A0FDA206BD61F54
S315080047B006EB86071F2606FA07F18843D61F06EB7F
S315080047C0860605FA06F10843206310E0E06AA2F1BE
S315080047D00D0606EB86071F2606FA07F18843A2F19F
S315080047E00D0606EB860605FA06F10843E062F0BDFB
S315080047F0816841F008018160704721B1826842F4FE
S31508004800A002826003E0826822F4A00282607047F8
S31508004810816841F0040181607047000010B50446C4
S3150800482011480088401C0A2190FBF1F201FB120096
S315080048300E490988884215D00B49098801EB81027F
S3150800484002EBC1010A4A88180D222146FFF76AFCC5
S3150800485005480088401C0A2190FBF1F201FB120072
S315080048600149088010BD00003608002038080020DD
S31508004870622A002010B5044614480088401C1421FA
S3150800488090FBF1F201FB12001149098888421BD0FE
S31508004890E07808B90820E0700C49098801EB810224
S315080048A002EBC1010B4A88180D222146FFF73AFC94
S315080048B006480088401C142190FBF1F201FB120007
S315080048C002490880012010BD0020FCE732080020BC
S315080048D0340800205E29002030B50F490988491C94
S315080048E0142291FBF2F302FB13110C4A128891422F
S315080048F011D00B49084A128801EB021190E83C00D6
S315080049003CC105490988491C142291FBF2F302FBB4
S315080049101311014A118030BD240800202608002002
S315080049209826002030B5014618480088401C1E22EB
S3150800493090FBF2F302FB1300154A1288904222D02C
S31508004940087B08B9082008730868B0F5006F02D913
S315080049500120887301E000208873002048730D4801
S315080049600A4A128800EB021091E83C003CC007484E
S315080049700088401C1E2290FBF2F302FB1300034A38
S315080049801080012030BD0020FCE700002008002030
S3150800499022080020B824002070B5174C2488641C0F
S315080049A0142594FBF5F605FB1644144D2D88AC42E8
S315080049B021D0134C104D2D8804EB05142060104CA3
S315080049C00D4D2D8804EB051421710D4C0A4D2D88CB
S315080049D004EB0514A2600A4C074D2D8804EB051458
S315080049E02373054C2488641C142594FBF5F605FBF3
S315080049F01644014D2C8070BDF0060020F2060020FA
S31508004A00BC0C002010B5044611480088401C0A2139
S31508004A1090FBF1F201FB12000E490988884215D075
S31508004A200B49098801EB810202EBC1010A4A881881
S31508004A300D222146FFF776FB05480088401C0A210F
S31508004A4090FBF1F201FB12000149088010BD00003D
S31508004A504008002042080020E82B002010B5044634
S31508004A6014480088401C142190FBF1F201FB120047
S31508004A701149098888421BD0E07808B90820E070F7
S31508004A800C49098801EB810202EBC1010B4A88181F
S31508004A900D222146FFF746FB06480088401C1421D4
S31508004AA090FBF1F201FB120002490880012010BDBB
S31508004AB00020FCE73C0800203E080020E42A0020ED
S31508004AC070B58AB006460D46144600200690079033
S31508004AD00890099002900390049005900120019097
S31508004AE000200090002301AA40F249414FF40060DB
S31508004AF008F012F800236A4640F2EF414FF40060CE
S31508004B0008F00AF8002E34D1A5208DF8180062485E
S31508004B10006810B90098012804D10198C0B28DF830
S31508004B20190002E001208DF819008DF81A500820A6
S31508004B308DF81B0020788DF81C0061788DF81D1003
S31508004B40A1788DF81E10E1788DF81F10217906A836
S31508004B50017261794172A1798172E179C17206A8FF
S31508004B600FC80BF07FFA8DF8240006A800F01CF990
S31508004B708FE0022E29D1A5208DF8180001208DF886
S31508004B8019008DF81A5008208DF81B0020788DF82A
S31508004B901C0061788DF81D10A1788DF81E10E1783B
S31508004BA08DF81F10217906A8017261794172A179E1
S31508004BB08172E179C17206A80FC80BF053FA8DF815
S31508004BC0240006A8FFF756FE63E0032E29D1A52088
S31508004BD08DF8180001208DF819008DF81A50082054
S31508004BE08DF81B0020788DF81C0061788DF81D1053
S31508004BF0A1788DF81E10E1788DF81F10217906A886
S31508004C00017261794172A1798172E179C17206A84E
S31508004C100FC80BF027FA8DF8240006A8FFF71EFF29
S31508004C2037E0012E35D11C48006810B900980128D4
S31508004C3009D14FF0C05000EB054000F580400199BE
S31508004C400844029007E04FF0C05000EB054000F51D
S31508004C508040401C029008208DF8140020788DF8BA
S31508004C600C0061788DF80D10A1788DF80E10E1789A
S31508004C708DF80F1021798DF8101061798DF81110C3
S31508004C80A1798DF81210E1798DF8131002A8FFF7B3
S31508004C9049FE0AB070BD00001C08002010B5044685
S31508004CA011480088401C052190FBF1F201FB120017
S31508004CB00E490988884215D00B49098801EB01116C
S31508004CC00B4A02EB01104FF488722146FFF72AFAC5
S31508004CD005480088401C052190FBF1F201FB1200F3
S31508004CE00149088010BD0000960800209808002099
S31508004CF0323B002010B5044612480088401C0521A6
S31508004D0090FBF1F201FB12000F490988884217D07F
S31508004D100C49098801EB01110C4A02EB01104FF40A
S31508004D2088722146FFF7FEF906480088401C0521CF
S31508004D3090FBF1F201FB120002490880012010BD28
S31508004D400020FCE79208002094080020E2350020A5
S31508004D5010B5044611480088401C0A2190FBF1F260
S31508004D6001FB12000E490988884215D00B490988AB
S31508004D7001EB810202EBC1010A4A88180D2221467D
S31508004D80FFF7D0F905480088401C0A2190FBF1F28C
S31508004D9001FB12000149088010BD00002C08002004
S31508004DA02E080020DC28002010B504461448008888
S31508004DB0401C142190FBF1F201FB120011490988ED
S31508004DC088421BD0E07808B90820E0700C490988A9
S31508004DD001EB810202EBC1010B4A88180D2221461C
S31508004DE0FFF7A0F906480088401C142190FBF1F251
S31508004DF001FB120002490880012010BD0020FCE7D3
S31508004E00280800202A080020D82700207CB500247E
S31508004E10002500200190009000BF99E05D4800EB56
S31508004E200410006840F6A271884206D0594800EB83
S31508004E3004100068891C884216D1002301AA40F292
S31508004E40D3714FF4006007F067FE98B30198022803
S31508004E5031D1504800EB041000231A4601684FF47C
S31508004E60006010F07FF971E04A4800EB0410006812
S31508004E7040F6A371884206D0464800EB0410006845
S31508004E80891C884217D1002301AA40F2D3714FF436
S31508004E90006007F041FE68B1019801280BD13D4832
S31508004EA000EB041000231A4601684FF4006010F066
S31508004EB059F94BE0FFE7374800EB04108068D0B19A
S31508004EC0344800EB041000236A4681684FF40060FA
S31508004ED007F022FE00B939E0009855280BD145F0B5
S31508004EE002052C4800EB04100023022201689002F8
S31508004EF010F038F92AE0274800EB04104068D0B1D2
S31508004F00244800EB041000236A4641684FF4006009
S31508004F1007F002FE00B919E0009855280BD145F0B4
S31508004F2001051C4800EB0410002301220168D00289
S31508004F3010F018F90AE0174800EB041000231A4687
S31508004F4001684FF4006010F00DF900BF601C84B2D0
S31508004F500E2CFFF463AF05F0020038B100230222DD
S31508004F6040F2DC71900210F0FDF812E005F0010045
S31508004F7038B10023012240F2DC71D00210F0F2F8B9
S31508004F8007E000231A4640F2DC714FF4006010F087
S31508004F90E9F87CBD5CB901082DE9F04105460E46E5
S31508004FA0069C0021002B34D027889F4203DA2788E5
S31508004FB07F1C278000E0238027887F1EB8B206E082
S31508004FC0471E32F8177022F81070471EB8B200282C
S31508004FD0F6DC1580002004E032F810703944471CCE
S31508004FE0B8B227888742F7DCB4F800C00CEB4C0748
S31508004FF0B1FBFCF80CFB181C4FEAE77807EB98782E
S31508005000BCEBA80F01D9278839442788B1FBF7F1EB
S315080050103180BDE8F0810000F8B505460E46144615
S315080050201F46072D43D2DFE805F04204111E30273C
S315080050303900204800EB440000901F4850F824200F
S31508005040032339463046FFF7A7FF30E01B4800EB3D
S31508005050440000901A4850F8242003233946304665
S31508005060FFF79AFF23E017480523174A39460090A9
S315080050703046FFF791FF1AE014480523144A3946CB
S3150800508000903046FFF788FF11E012480523124AC0
S31508005090394600903046FFF77FFF08E00F480523A2
S315080050A00F4A394600903046FFF776FF00BF00BF2B
S315080050B0F8BD0000E60A002010050020460B002077
S315080050C0D0050020180600206A0B00201C060020C8
S315080050D07E0B00201A060020740B00201E060020F6
S315080050E0880B002010B501200AF070FD00200AF098
S315080050F06DFD10BD08B501460020009003480090DC
S315080051000098084400900098008808BD006C00408C
S3150800511008B500220092044A0092009A02440092BE
S31508005120009A116008BD0000006C004010B516F02A
S315080051305FF908F059FA20B106480078401C05497D
S3150800514008700548008820B103480088401E0249B7
S31508005150088010BD1F000020600800201FB5002031
S3150800516000900190029003900F4800880F49098823
S31508005170884218D00C48008800EB800202EBC00079
S315080051800B4A81180D226846FEF7CCFF684600F0E8
S3150800519077FA05480088401C0A2190FBF1F201FBCA
S315080051A01200014908801FBD380800203608002073
S315080051B0622A00201FB500200090019002900390FB
S315080051C01548008815490988884223D0144800786C
S315080051D000BB01201249087000201249C8710E4808
S315080051E0008800EB800202EBC0000F4A81180D22EE
S315080051F06846FEF797FF684613F0EAF8012809D1D2
S3150800520005480088401C142190FBF1F201FB1200AE
S31508005210014908801FBD000034080020320800201C
S315080052203A080020240700205E290020F8B500244B
S31508005230002500200090002600236A4640F2EF3140
S315080052404FF4006007F068FC0098C5B2AA2012491E
S31508005250087000BF00BF16E0104830F8140050B1BF
S315080052600E4830F81410204608F0E8FF55200A4981
S315080052700870012605E0094830F81410204608F0A1
S31508005280DDFF601CC4B2AC42E6DB012332464F2187
S3150800529098020FF067FFF8BD2E06002020060020B2
S315080052A01FB5002003900290019000900024444806
S315080052B00088401C80B242490880052800DA1FBDD4
S315080052C005203F4908803F480088401C80B23D4978
S315080052D00880B0F5167F06DB00203B4908704FF4BE
S315080052E016703849088038480078012800D1E6E762
S315080052F0002303AA40F2FF314FF4006007F00CFCCC
S31508005300002302AA40F2D3714FF4006007F004FCB0
S31508005310002301AA4FF4FB614FF4006007F0FCFB81
S31508005320039820BB0298022821D02848407800F02C
S31508005330030090B925484078C0F3810068B923482E
S315080053404078C0F3011040B920484078800920B958
S315080053501E48807800F0030008B1012000E0002014
S3150800536028B90198012802D11949087002E00220DB
S315080053701749087000F02AFD15480078012819D049
S3150800538000236A4640F2EF314FF4006007F0C4FB91
S31508005390002405E00021204608F050FF601CC4B236
S315080053A000988442F6DB012300224F2198020FF071
S315080053B0D9FE84E700F046FCFFF738FF00BF7EE71A
S315080053C0400600203A060020300600202C07002060
S315080053D02F0600202DE9F843054600240026002064
S315080053E0009000278046814600236A4640F2EF3146
S315080053F04FF4006007F090FB0098C6B200BF0CE0BF
S315080054002DB14FF6FF702F4921F8140003E0002054
S315080054102C4921F81400601CC4B2B442F0DB002405
S3150800542009E01DB1FF202849085502E00020264959
S315080054300855601CC4B2082CF3DB2448057085B3F4
S3150800544000242BE004F57C7100236A464FF40060C3
S3150800545007F062FB009807441D480078B8420ADC4A
S315080054601B480078404506DD19480078A0EB08007F
S315080054701FFA80F901E04FF00009B846A9F10100CA
S315080054800121814088B20F4921F81400084630F8F6
S315080054901410204608F0D2FE601CC4B2B442D1DB18
S315080054A00AE0FFE7002405E00021204608F0C6FED2
S315080054B0601CC4B2B442F7DB002006490880BDE888
S315080054C0F88300002006002026060020300600206B
S315080054D0310600203A0600203EB500240020009040
S315080054E00190002302AA40F2F971C81D07F014FBC7
S315080054F00298C0F30720ADF800000298C0B28DF8F4
S315080055000200002302AA40F2FA71881D07F004FB84
S315080055100298000A8DF803000298C0B28DF80400BC
S31508005520002302AA40F2FB71481D07F0F5FA02981B
S31508005530000A8DF805000298C0B28DF80600684684
S3150800554008F0BAFD04460AF0E9FE0349086000209F
S315080055500249086020463EBD7400002078000020FD
S315080055601CB50020019000903E480078401C3D493B
S3150800557008703D480078401C3B490870084600788A
S31508005580782802DD00203949087000236A4640F66B
S31508005590C3714FF4006007F0BFFA002301AA40F276
S315080055A0E1714FF4006007F0B7FA30480078002838
S315080055B04ED1009848B1012008F002FE2C48007828
S315080055C040F010002A49087042E00198642805DA7C
S315080055D02848007878B3019862282DDB01986E2850
S315080055E009DB012008F0ECFD2148007840F01000A6
S315080055F01F4908702CE02048007860B1012008F0A7
S31508005600DFFD1B48007840F010001949087000209B
S31508005610194908700BE0002008F0D2FD14480078FC
S3150800562000F0EF00124908700120134908700120A4
S31508005630104908700CE0FFE7002008F0C1FD0C488F
S31508005640007800F0EF000A49087000200949087040
S315080056500A48006820B109480068401E07490860E2
S315080056601CBD000034070020450700204407002021
S3150800567056000020280000202700002018000020DF
S3150800568010B504466078802805D1A178221D02202D
S3150800569009F014FF07E06078402804D1A178221D9C
S315080056A0022009F00BFF10BD00BFFEE708B5012177
S315080056B048060AF04BFA012105200AF067FA4FF46A
S315080056C00060ADF8000048208DF8030069462048C0
S315080056D004F06EFB4FF48050ADF8000018208DF8EA
S315080056E0030003208DF802006946194804F060FBA0
S315080056F0184800F035F8184800F0F1F90020164966
S3150800570088710120C87100200872487288720120C9
S31508005710C87200208870C87002200871012048717C
S31508005720082008800B4800F0C4F800200B4988724E
S31508005730C872012008730020088048808880C880C5
S31508005740088101204873084600F026F808BD0000C5
S315080057500008014000640040D0080020DC08002052
S3150800576010B504460B48844209D1012148060AF0BF
S31508005770FDF900214FF000700AF0F8F908E0012160
S3150800578088060AF0F3F900214FF080600AF0EEF976
S3150800579010BD00000064004010B50021837A012284
S315080057A002FA03F13D4A126842F001023B4B1A60C5
S315080057B03A4A1C3212688A43384B1C331A60027BF9
S315080057C0CAB9364A0C3212688A43344B0C331A600B
S315080057D04288C38842EA0343304A4032847A42F810
S315080057E034300288838842EA03432C4A4032847A5A
S315080057F002EBC4025360027B012A19D1274A0C32F4
S3150800580012680A43254B0C331A604288038842EA19
S315080058100343224A4032847A42F83430C288838865
S3150800582042EA03431D4A4032847A02EBC4025360BB
S31508005830C27A3AB9194A121D12688A43174B1B1DB8
S315080058401A6006E0154A121D12680A43134B1B1DFF
S315080058501A60028932B9114A143212688A430F4B08
S3150800586014331A600289012A06D10C4A14321268C6
S315080058700A430A4B14331A60427B012A06D1074AA7
S315080058801C3212680A43054B1C331A60034A126815
S3150800589022F00102014B1A6010BD000000660040AC
S315080058A01AB143690B43436102E043698B43436181
S315080058B0704730B5024600200023146824F002041D
S315080058C01460146844F00104146000E05B1C54681A
S315080058D004F001041CB94FF6FF74A342F6D15468CC
S315080058E004F001040CB900206CE08C79012C04D179
S315080058F0146844F08004146003E0146824F08004FB
S315080059001460CC79012C04D1146844F04004146066
S3150800591003E0146824F0400414600C7A012C04D1C6
S31508005920146844F02004146003E0146824F020048A
S3150800593014604C7A012C04D1146844F010041460E5
S3150800594003E0146824F0100414608C7A012C04D146
S31508005950146844F00804146003E0146824F008048A
S315080059601460CC7A012C04D1146844F00404146041
S3150800597003E0146824F0040414608C78A407CD7836
S3150800598044EA05640D7944EA05444D7944EA055428
S315080059900D886D1E2C43D461146824F0010414602C
S315080059A0002300E05B1C546804F001041CB14FF6A8
S315080059B0FF74A342F6D1546804F001040CB1002028
S315080059C000E0012030BD08B54FF4C06009F046FD7F
S315080059D014208DF8000000208DF801008DF80200D3
S315080059E001208DF80300684609F000FD08BD10B5D2
S315080059F000F5D87303EB01131B6803F00403137255
S31508005A00137A53B900F5D87303EB01131B6840F2F8
S31508005A10FF7404EA5353136009E000F5D87303EBE7
S31508005A2001131B686FF0604404EAD303536000F562
S31508005A30D87303EB01131B6803F00203537200F5D6
S31508005A40D87303EB01135B6803F00F03937200F539
S31508005A50D87303EB01135B681B0AD37400F5D8737C
S31508005A6003EB01139B68D37200F5D87303EB01139C
S31508005A709B681C0A147300F5D87303EB01139B6823
S31508005A801C0C547300F5D87303EB01139B681B0EAB
S31508005A90937300F5D87303EB0113DB68D37300F532
S31508005AA0D87303EB0113DB681C0A147400F5D8736A
S31508005AB003EB0113DB681C0C547400F5D87303EB75
S31508005AC00113DB681B0E937421B9C36843F02003E6
S31508005AD0C36003E0036943F02003036110BD00219E
S31508005AE08171C171017241728172C1728170C17016
S31508005AF0032101710221417101210180704710B50E
S31508005B0002460020936803F08063B3F1806F00D1EA
S31508005B1010E0936803F00063B3F1006F01D1012030
S31508005B2008E0936803F08053B3F1805F01D1022047
S31508005B3000E00420042874D002F5C07303EB0013B8
S31508005B401B6803F0010402F5C07303EB00131C6025
S31508005B500B7A7BB94B7A0C8843EA445302F5C07436
S31508005B6004EB00142468234302F5C07404EB001404
S31508005B70236010E00B7A4C6843EAC4034C7A23434B
S31508005B8002F5C07404EB00142468234302F5C074BC
S31508005B9004EB001423608B7A03F00F038B7202F573
S31508005BA0C07303EB00135B6823F00F0402F5C073A0
S31508005BB003EB00135C6002F5C07303EB00135B682C
S31508005BC08C7A234302F5C07404EB001463608B7B64
S31508005BD01C064B7B44EA03440B7B44EA0323CC7A3A
S31508005BE0234302F5C07404EB0014A3608B7C1C06E7
S31508005BF04B7C44EA03440B7C44EA0323CC7B2343D3
S31508005C0002F5C07404EB0014E36002F5C07303EBFD
S31508005C1000131B6843F0010402F5C07303EB00137D
S31508005C201C6010BD10B50246002006E013784340FC
S31508005C30034CE05C521C4B1ED9B20029F6DC10BDA1
S31508005C4080EA01082DE9F04FD1B00024002500268E
S31508005C50A146A246A346002050900027AA204F90AE
S31508005C6000204E9080464D904C90C0211CA8FEF70F
S31508005C7072FA00201B901A9000231AAA40F2EF31FC
S31508005C804FF4006006F048FF1A98C0B24E90002301
S31508005C901AAA4FF48061480006F03EFFDDF86880D6
S31508005CA000231AAA40F201414FF4006006F034FFBF
S31508005CB01A984D9000231AAA4FF4FC614FF400601D
S31508005CC006F02AFF1A9880B250903D4800780128BD
S31508005CD002D13C480088509068460CF011F83422EE
S31508005CE069460DA8FEF71EFA002564E00DA830F8EF
S31508005CF015001B9005F57C7100231AAA4FF4006065
S31508005D0006F00AFF1A98C6B21B9840454FD3102EC4
S31508005D1000DC16B951B0BDE8F08F002412E00BF094
S31508005D20F9FF00EB470030F814B01CA800EB85100B
S31508005D3020F824B01CA800EB851000EB84008470C2
S31508005D40601CC4B2B442EADB1CA901EB85103146DB
S31508005D5012F014FDB01EC4B227E01CA800EB851093
S31508005D6000EB840090F802901CA800EB851030F830
S31508005D7024105098A1EB000A4D98824509D31CA817
S31508005D8000EB851030F82400404502D355204F908B
S31508005D9001E0AA204F90CDF8309129460A484F9B3A
S31508005DA04C9A07F095F9601CC4B2B442D5DBB81911
S31508005DB0C7B2681CC5B24E98854297DB00BFA9E7F3
S31508005DC034060020360600202006002038B50024B8
S31508005DD000250020009000236A4640F2EF314FF478
S31508005DE0006006F099FE0098C5B200BF05E00020E5
S31508005DF0084921F81400601CC4B2AC42F7DB002441
S31508005E0004E0002004490855601CC4B2082CF8DBDD
S31508005E1038BD00002006002026060020F8B549F601
S31508005E20404400250026002000901E480068401CBB
S31508005E301C490860084600681B490968884230D32F
S31508005E400020184908600AF069FA054617480068EC
S31508005E502E1A00236A4640F2EC414FF4006006F021
S31508005E605BFE0098704310490968B0FBF1F4002303
S31508005E70224640F2EC414FF400600FF073F950B13E
S31508005E800AF096FC0AF09AF920460AF04FFC0AF046
S31508005E908FFC0AF09DF9054805604FF41670024913
S31508005EA00860F8BD7800002070000020740000200B
S31508005EB010B500F079FE10BD7FB5002003900025CF
S31508005EC00026029001900024002302AA40F6BF7122
S31508005ED04FF4006006F020FE029800B17FBD002353
S31508005EE003AA40F2D2714FF4006006F015FE0023B3
S31508005EF001AA40F2F4414FF4006006F00DFE642159
S31508005F00019890FBF1F003990844039064210198E5
S31508005F1090FBF1F201FB1200019067480078401CE3
S31508005F2065490870084600780199884203DC039899
S31508005F30401C039006E060480078642802DB0020D5
S31508005F405D4908705D495E4A1278039841F8220057
S31508005F505B480078401C0A2190FBF1F201FB120015
S31508005F605749087047F230510398884260DA039817
S31508005F700D1A48F6A040854201DD0025AEE72E46FB
S31508005F8000236A4640F2E9714FF4006006F0C4FD4A
S31508005F900098B0F57A7F25DA0098002822DD49486E
S31508005FA0007801281ED1002419E04648408804EBF1
S31508005FB04401454A32F8111088420EDD04EB4400CC
S31508005FC0114601EB40004088684304EB440102EBAC
S31508005FD04101898890FBF1F603E0601CC4B2042CE9
S31508005FE0E3DB00BF3948006818B939480068374903
S31508005FF008600023374A40F2F2414FF4006006F089
S315080060008BFD34480068C0EB401040014FF47A71AC
S3150800601090FBF1F02E490968884204DD2E48006895
S3150800602030442D4908602D48006828442B490860EB
S3150800603047F23051039888423CDD0398451A48F6E2
S31508006040A040854201DD002548E72E460098B0F5B8
S315080060507A7F25DA0098002822DD1A480078022877
S315080060601ED1002419E01748408804EB44011C4A55
S3150800607032F8111088420EDD04EB4400114601EB9C
S3150800608040004088684304EB440102EB41018988DB
S3150800609090FBF1F603E0601CC4B2042CE3DB00BFFE
S315080060A00D480068801B0C4908600E4800682844A3
S315080060B00C49086000BF11E7C00700203410002013
S315080060C0B007002084070020A0C10108B8070020F7
S315080060D088070020BC07002098070020A807002092
S315080060E0B8C10108AC07002038B50020009000248C
S315080060F000236A4640F2FE314FF4006006F00CFDBC
S315080061000098322802DA4FF47A7414E0009832289C
S315080061100FDB40F21A41009888420ADC009800EB2F
S31508006120400101EB00100849081A642190FBF1F4BC
S3150800613001E04FF448740023224640F2FD314FF443
S3150800614000600FF00FF838BD568A01007FB50025AC
S3150800615000240020039002900190009004F054F966
S31508006160044648F6A04084420FD847F2305084428D
S315080061700BD34A480088401C4849088008460088CE
S315080061800A2805DD0A20088002E000204349088025
S3150800619047F2265084420FD845F6C05084420BD3A6
S315080061A03F480088401C3E490880084600880A285F
S315080061B005DD0A20088002E000203949088000230E
S315080061C003AA40F2DD714FF4006006F0A5FC002337
S315080061D002AA4FF4FC614FF4006006F09DFC002310
S315080061E06A4640F2DF714FF4006006F095FC002322
S315080061F001AA40F2E9714FF4006006F08DFC03989D
S31508006200B0F57A7F00DA7FBD244800880A280EDBBD
S31508006210A4F5EA40303885B2029806F09DFE029051
S31508006220204A2946029806F029FD1F4908801C487D
S3150800623000880A280EDB47F23050001B85B200980A
S3150800624000F070FA0090194A2946009806F016FDE3
S3150800625015490880144800880199884209DD0120FB
S3150800626013490870104800880199401A1049488057
S3150800627012E00D4800880199884209DA02200C4983
S315080062800870094909880198401A0949488003E0B5
S31508006290002007490870488000BFB4E7C6070020F9
S315080062A0C407002024100020B20700201410002084
S315080062B0840700202DE9F84306460C4600250020F1
S315080062C0009080460027012E04D0022E2AD0032EE5
S315080062D072D188E0002059490880594908805948F0
S315080062E0006847F25851884219DC5648006847F258
S315080062F00851884213DB4FF001080023514840F249
S31508006300244102684FF400600EF02CFF4D480088C7
S3150800631000B24A49088001204B49087001E04FF055
S31508006320000886E048480078012802D04FF00008A7
S315080063307FE04448016804F12800814250DC503867
S315080063404049096888424BDC4FF001083D480088FF
S3150800635000B23B49088047F23050844201DB271AD5
S3150800636002E047F23050071B3548B0F900003349C0
S31508006370B1F9001088420BDD642078433049B1F941
S3150800638000102E4AB2F90020891AB0FBF1F517E081
S315080063902B48B0F900002949B1F9001088420CDAF7
S315080063A0642078432549B1F90010254AB2F900203E
S315080063B0891AB0FBF1F503E03AE04FF0000838E03F
S315080063C000232A4640F225414FF400600EF0CAFE2B
S315080063D018B102201C49087004E04FF0000801E0DB
S315080063E04FF0000825E018480078022802D04FF040
S315080063F000081EE000236A4640F2D2714FF400609E
S3150800640006F08AFB2046009912F00BFB814647F2FC
S315080064103051204612F005FBB9EBD00F05D24FF0EC
S31508006420010800200849087001E04FF0000800E064
S3150800643000BF00BF4046BDE8F88300004C060020B8
S315080064404E06002038070020500600201FB5002001
S3150800645000900190029003900D4800880D49098824
S31508006460884214D00C480A49098800EB01130FCB5F
S315080064708DE80F00684608F0D3FD05480088401CE3
S31508006480142190FBF1F201FB1200014908801FBD9F
S315080064902608002024080020982600201FB5002082
S315080064A000900190029003901948008819490988BC
S315080064B088422CD018481649098800EB01130FCBDF
S315080064C08DE80F009DF80C2001A9009806F0D8FE6B
S315080064D068B10F480088401C1E2190FBF1F201FBB1
S315080064E012000B49088000200C4908700FE00B4881
S315080064F00078401C09490870084600780A2806DD15
S3150800650006F084FE08F05AFA0020044908701FBDF8
S315080065102208002020080020B82400204A0800206D
S315080065201FB50020039047F23050029000200190DA
S315080065300090002302AA40F2D2714FF4006006F0E0
S31508006540EBFA47F23051029888420FDA6A48008817
S31508006550401C69490880084600880A2802DD01208F
S31508006560664908700020664908801EE0644800886D
S31508006570401C6349088008460088322802DD00204E
S315080065805E49087000205C49088047F2305102983D
S3150800659088420ADD5B4801780078401C594A107029
S315080065A00A2902DD002058490870002301AA40F292
S315080065B0E9714FF4006006F0AFFA00236A4640F628
S315080065C0B8314FF4006006F0A7FA03A804F088FA79
S315080065D0012802D00098552803D148480078012898
S315080065E003D003F0DBFE00285AD04FF47A700EF081
S315080065F0F5FF00F08FF800204049087040490880F0
S315080066003D4908800120414908703F480078002824
S3150800661065D003A804F064FA012860D100203A493D
S31508006620087000236A4640F2FA314FF4006006F01B
S3150800663073FA374900980968401A354908600023F3
S315080066406A4640F2F6314FF4006006F065FA0098A3
S3150800665000EB400080000A2190FBF1F02C49096804
S3150800666088423CDB0098C0000A2190FBF1F02849DB
S315080066700968884233DC0023254840F2F241026863
S315080066804FF400600EF06EFD0023214840F2F6310B
S3150800669002684FF400600EF065FD08F081FA1EE00E
S315080066A003F0A0FEA0B100200EF098FF00236A4672
S315080066B040F2FA314FF4006006F02EFA14490098B9
S315080066C0086001201049087000200E49087006E08D
S315080066D003A801F0EDFF012801D100F01BF801988D
S315080066E0B0F57A7F04DB47F230510298884202DD22
S315080066F00020064908701FBD760600207A0600208D
S31508006700780600207B0600206C0600206406002020
S31508006710680600200120704710B501F059FA01F00B
S3150800672013FA10BD38B505460020009000242C4603
S3150800673000236A4640F2E2714FF4006006F0ECF975
S31508006740B4F57A7F02DB0098002801DA204638BDC6
S31508006750009841282BDA0098322807DB0098C0F108
S3150800676041001449096800FB114420E000982828D4
S315080067700CDB104800680F2101FB10440098C0F19B
S3150800678032000D49096800FB114410E00948006809
S315080067900F2101FB1044084800680A2101FB104438
S315080067A00098C0F128000549096800FB11442046F5
S315080067B0CDE70000500700205407002058070020A6
S315080067C038B5054600240020009000BF3BE020486D
S315080067D000EB04100068A84233D11D4800EB0410F2
S315080067E0806898B11A4800EB041000236A4681684D
S315080067F04FF4006006F090F908B9002038BD0098FB
S31508006800552801D10120F9E70020F7E7104800EBE9
S315080068100410406898B10E4800EB041000236A463D
S3150800682041684FF4006006F077F908B90020E5E7FB
S315080068300098552801D10120E0E70020DEE7002076
S31508006840DCE7601C84B20E2CC1D30020D6E700001A
S315080068505CB9010870B500241EE0144901F83440FB
S31508006860002515E0C4EBC400284486B2802E07DA5A
S315080068700F48815D05EBC400401C0C4A115405E025
S31508006880FF2105EBC400401C084A1154681C85B258
S31508006890072DE7DB601C84B2132CDEDB00200549DC
S315080068A008800621044801F0F5F970BD140C002093
S315080068B0940B0020D40600208D9C000810B50024F7
S315080068C07A2009F023FA08B144F001047B2009F084
S315080068D01DFA08B144F002047C2009F017FA08B141
S315080068E044F004047D2009F011FA08B144F00804C4
S315080068F07E2009F00BFA08B144F010047F2009F055
S3150800690005FA08B144F0200409F066F9204610BDDE
S3150800691008B50020009001F03FFA1A4908700846A9
S315080069200078012818D100236A4640F2EF41C002D8
S3150800693006F0F2F8009801280AD11348007818B131
S31508006940032013F033F90AE0022013F02FF906E0CA
S31508006950022013F02BF902E0032013F027F90B4865
S31508006960007818B1032011F0EDFF09E013F0C0F923
S3150800697018B1022011F0E6FF02E0032011F0E2FF51
S3150800698008BD0000D1070020C8070020930000209A
S3150800699010B5044611480088401C052190FBF1F209
S315080069A001FB12000E490988884216D00B4909884E
S315080069B001EB410202EBC1010A4A02EB4100162231
S315080069C02146FDF7AFFB05480088401C052190FBD2
S315080069D0F1F201FB12000149088010BD46080020AB
S315080069E0480800206A2C002000B587B010480088A7
S315080069F010490988884219D00E48008800EB4002E1
S31508006A0002EBC0000C4A02EB4001162201A8FDF772
S31508006A1089FB01A800F022F806480088401C0521D9
S31508006A2090FBF1F201FB12000249088007B000BD95
S31508006A3046080020480800206A2C0020002007E0AD
S31508006A40102200EB4003044901F81320411CC8B288
S31508006A500428F5DB70470000582D00207CB5044655
S31508006A6000251BA103C9CDE900016088A0F60170C5
S31508006A7010B1042828D102E011F07EFC25E000259B
S31508006A8008E01DF805002178134A02EB81114855E4
S31508006A90681CC5B2082DF4DB012122780F4800EBEB
S31508006AA082008170082122780C4820F822100021E3
S31508006AB0227800EB8200C170217801EB4101084A77
S31508006AC052F82100804700E000BF00BF7CBD0000EF
S31508006AD051100F05AAAA2193702D0020702E0020B0
S31508006AE050E9010870B503460C46012000211146FD
S31508006AF005E05D5C665CB54201D0002004E00D1E31
S31508006B00A1F10106F1B2F4D100BF70BD014601F052
S31508006B100F020B1103EB830302EB4302D0B270475B
S31508006B20014664290ADA0A2091FBF0F200FB1212E8
S31508006B3091FBF0F002EB0010C0B270470020FCE7B2
S31508006B4030B502460B464FF6FF7011E012F8014BBE
S31508006B50604000210AE000F0010424B140104AF226
S31508006B600104604000E040104C1CE1B20829F2DB49
S31508006B701C1EA3F10105ABB2E8D130BD00B5034632
S31508006B8005F0BAFF0246802A07D0054840F82230A9
S31508006B9004480068401C03490860104600BD000010
S31508006BA0B82200201408002008B500200090002311
S31508006BB06A464FF47A714FF4006005F0ADFF00990C
S31508006BC0C8B200F030F90099C8B200F074F800991C
S31508006BD0C8B200F009F800F0D5F800F07DF9009980
S31508006BE0C8B200F040F908BD2DE9FC5F07464FF032
S31508006BF0000AD34600254FF6FF76A846B146002080
S31508006C00019030460090012423E0234601AA47213B
S31508006C104FF4806005F080FF23466A4648214FF40A
S31508006C20806005F079FF019885B2009886B2012C3C
S31508006C3004D1A846B146A246A34608E0A84501DA0B
S31508006C40A846A246B14501DDB146A34600BF601C71
S31508006C50C4B2BC42D9DD0023424640F2E1714FF48A
S31508006C6000600EF07FFA534601AA4B214FF480606C
S31508006C7005F052FF002340F2E7714FF40060019AD5
S31508006C800EF070FA00234A4640F2E2714FF40060B3
S31508006C900EF068FA5B466A464C214FF4806005F0B0
S31508006CA03BFF00234FF4FD614FF40060009A0EF09D
S31508006CB059FABDE8FC9F2DE9FC5F07464FF0000A2C
S31508006CC0D34600254FF6FF76A846B1460020019028
S31508006CD030460090012423E0234601AA43214FF4BD
S31508006CE0806005F019FF23466A4644214FF4806008
S31508006CF005F012FF019885B2009886B2012C04D1DE
S31508006D00A846B146A246A34608E0A84501DAA84621
S31508006D10A246B14501DDB146A34600BF601CC4B218
S31508006D20BC42D9DD0023424640F2DF714FF40060D1
S31508006D300EF018FA534601AA49214FF4806005F06F
S31508006D40EBFE002340F2E5714FF40060019A0EF065
S31508006D5009FA00234A464FF4FC614FF400600EF02E
S31508006D6001FA5B466A464A214FF4806005F0D4FE74
S31508006D70002340F2E6714FF40060009A0EF0F2F933
S31508006D80BDE8FC9F7FB500240025002003900290F3
S31508006D9001900090002303AA40F2DF714FF40060CF
S31508006DA005F0BAFE002302AA4FF4FC614FF4006016
S31508006DB005F0B2FEDDE90210884203DDDDE90210C6
S31508006DC0401A02E0DDE90201401A84B20023224695
S31508006DD040F2E3714FF400600EF0C4F9002301AAF3
S31508006DE040F2E1714FF4006005F096FE00236A4612
S31508006DF040F2E2714FF4006005F08EFEDDE9001006
S31508006E00884203DDDDE90010401A02E0DDE90001F1
S31508006E10401A85B200232A4640F2E4714FF4006016
S31508006E200EF0A0F97FBDF8B505460027002600201C
S31508006E30009000240CE0601CC3B26A464021080199
S31508006E4005F06AFE009887B2F01986B2601CC4B2D3
S31508006E50AC42F0DB0023324640F2D1714FF40060B9
S31508006E600EF080F9F8BD2DE9F84F07464FF00009F6
S31508006E70002000900026804601241DE004F2F2312D
S31508006E8000236A464FF4006005F046FE009800F0BD
S31508006E90FF0900250CE005F1300123466A464FF448
S31508006EA0806005F039FE00988044761C681CC5B2DF
S31508006EB04D45F0DB601CC4B2BC42DFDD002E09DDA7
S31508006EC098FBF6FA0023524640F2DE714FF4006052
S31508006ED00EF048F9BDE8F88F1CB50020019000BFF8
S31508006EE00090002301AA40F2D1714FF4006005F02A
S31508006EF013FE00236A4640F2D6714FF4006005F08F
S31508006F000BFE642101984843009990FBF1F4002395
S31508006F10224640F2DD714FF400600EF023F91CBDE5
S31508006F2030B585B00020009001904FF4FA71FE4804
S31508006F30FDF711F9002304AA40F2D6714FF4006058
S31508006F4005F0EAFD0498C5B22025002412E0214682
S31508006F50012303AA980205F0DFFD0398C0F3072171
S31508006F60F14A02F814100398C1B26000401C11548B
S31508006F70601CC4B2AC42EADB002304AA40F2D77113
S31508006F804FF4006005F0C8FD0498C5B20825002432
S31508006F9014E004F13001012303AA980205F0BCFDB0
S31508006FA00398C0F3072160004030DF4A1154039864
S31508006FB0C1B2600041301154601CC4B2AC42E8DB77
S31508006FC0002303AA40F2D1714FF4006005F0A4FD36
S31508006FD00398000AD44981F85000039881F85100B3
S31508006FE0002303AA40F2D2714FF4006005F094FD25
S31508006FF04EF660210398081A03900398000ACA49B6
S3150800700081F85200039881F85300002303AA40F23E
S31508007010E9714FF4006005F07FFD0398000AC24944
S3150800702081F85400039881F85500002303AA40F21A
S31508007030DF714FF4006005F06FFD0398000ABA4946
S3150800704081F85600039881F85700002303AA4FF4E5
S31508007050FC614FF4006005F05FFD0398000AB24931
S3150800706081F85800039881F85900002303AA40F2D2
S31508007070E1714FF4006005F04FFD0398000AAA4934
S3150800708081F85A00039881F85B00002303AA40F2AE
S31508007090E2714FF4006005F03FFD0398000AA2492B
S315080070A081F85C00039881F85D00002303AA40F28A
S315080070B0D3714FF4006005F02FFD0398000A9A4932
S315080070C081F85E00039881F85F00002303AA40F266
S315080070D0F6314FF4006005F01FFD002302AA40F2C6
S315080070E0E9714FF4006005F017FD6421039890FBE1
S315080070F0F1F0029948434FF47A7190FBF1F003904E
S315080071000398000A884981F86000039881F86100AD
S31508007110002303AA40F2D6714FF4006005F0FCFC88
S315080071200398000A804981F86200039881F8630091
S31508007130002303AA40F2D7714FF4006005F0ECFC77
S315080071400398000A784981F86400039881F8650075
S31508007150002303AA40F2FE314FF4006005F0DCFC80
S315080071600398000A704981F86600039881F8670059
S31508007170002003906D4800786C49497808436B49AC
S31508007180897808436949C9780843684909790843E9
S3150800719066494979084318B1039840F001000390FD
S315080071A00398000A604981F86800039881F8690025
S315080071B0002303AA40F2D9714FF4006005F0ACFC35
S315080071C00398000A584981F86A00039881F86B0009
S315080071D0002303AA4FF4FB614FF4006005F09CFC02
S315080071E00398000A504981F86C00039881F86D00ED
S315080071F0012303AA4121980205F08EFC0398000A90
S31508007200494981F86E00039881F86F00002303AAA4
S3150800721040F2E3714FF4006005F07EFC0398000A23
S31508007220414981F87000039881F87100002303AA88
S3150800723040F2D1714FF4006005F06EFC002304AAF9
S3150800724040F2D2714FF4006005F066FC47F2305107
S315080072500498884203DB0498401A049004E047F235
S3150800726030510498081A0490DDE903014843642163
S3150800727090FBF1F003900398000A2B4981F87200FD
S31508007280039881F8730002F0D7FE039028484078E7
S31508007290254981F874002648007881F8750002F0BF
S315080072A043FF03902248C0781F4981F8760020489A
S315080072B0807881F8770002F0ADFF03901C4840798A
S315080072C0194981F878001A48007981F8790003F09D
S315080072D03DF803901648C079134981F87A00144896
S315080072E0807981F87B00002003901048007810B15F
S315080072F00120039001E000200390002003900398EA
S31508007300000A094981F87E00039881F87F00002366
S3150800731003AA40F2F7714FF4006005F0FDFB47F24F
S3150800732030500390039805E0DE3200202606002040
S315080073302C070020000AFE4981F88000039881F88E
S315080073408100002304AA4FF47C714FF4006005F015
S31508007350E3FB0498C5B20020039000240AE0F54830
S3150800736000780121A140084010B1601C039003E099
S31508007370601CC4B2AC42F2DB00BF00200390039845
S31508007380000AEB4981F88200039881F883000023FC
S3150800739003AA4FF4FF614FF4006005F0BDFB0398A4
S315080073A0000AE34981F88400039881F885000023E0
S315080073B004AA40F2D6714FF4006005F0ADFB0498BC
S315080073C0C5B21025002414E004F12001012303AA04
S315080073D0980205F0A1FB0398C0F3072160008E30E0
S315080073E0D34A11540398C1B260008F301154601CFF
S315080073F0C4B2AC42E8DBD048C07FA52805D1182224
S31508007400CD49CB48AE30FCF78DFEFF223821C8485F
S31508007410C630FCF799FE002303AA40F2F6314FF472
S31508007420006005F079FB6421039890FBF1F0039066
S315080074300398000ABE4981F8FE00039881F8FF0008
S31508007440002303AA40F2F9314FF4006005F064FB0B
S315080074500398000AB64981F80001039881F80101EA
S31508007460002303AA40F2EF314FF4006005F054FB05
S315080074700398000AAE4981F80201039881F80301CE
S31508007480002303AA4FF47C714FF4006005F044FB17
S315080074900398000AA64981F80401039881F80501B2
S315080074A0002303AA40F2F1314FF4006005F034FBE3
S315080074B00398000A9E4981F80601039881F8070196
S315080074C0002303AA40F2F2314FF4006005F024FBD2
S315080074D00398000A964981F80801039881F809017A
S315080074E0002303AA40F2F3314FF4006005F014FBC1
S315080074F00398000A8E4981F80A01039881F80B015E
S31508007500002303AA4FF47D714FF4006005F004FBD5
S315080075100398000A864981F80C01039881F80D0141
S31508007520002303AA40F2F5314FF4006005F0F4FA9F
S315080075300398000A7E4981F80E01039881F80F0125
S31508007540002303AA4FF47E714FF4006005F0E4FAB5
S315080075500398000A764981F81001039881F8110109
S31508007560002303AA40F203414FF4006005F0D4FA61
S315080075700398000A6E4981F81201039881F81301ED
S31508007580002303AA40F22D414FF4006005F0C4FA27
S315080075900398000A664981F81401039881F81501D1
S315080075A0002303AA40F23B414FF4006005F0B4FA09
S315080075B00398000A5E4981F81601039881F81701B5
S315080075C0002303AA40F22E414FF4006005F0A4FA06
S315080075D00398000A564981F81801039881F8190199
S315080075E0002303AA40F23C414FF4006005F094FAE8
S315080075F00398000A4E4981F81A01039881F81B017D
S31508007600002303AA40F227414FF4006005F084FAEC
S315080076100398000A464981F81C01039881F81D0160
S31508007620002303AA40F235414FF4006005F074FACE
S315080076300398000A3E4981F81E01039881F81F0144
S31508007640002303AA4FF485614FF4006005F064FA3D
S315080076500398000A364981F82001039881F8210128
S31508007660002303AA40F236414FF4006005F054FAAD
S315080076700398000A2E4981F82201039881F823010C
S31508007680002303AA40F22B414FF4006005F044FAA8
S315080076900398000A264981F82401039881F82501F0
S315080076A0002303AA40F239414FF4006005F034FA8A
S315080076B00398000A1E4981F82601039881F82701D4
S315080076C0002303AA40F22C414FF4006005F024FA87
S315080076D00398000A164981F82801039881F82901B8
S315080076E0002303AA40F23A414FF4006005F014FA69
S315080076F00398000A0E4981F82A01039881F82B019C
S31508007700002303AA40F232414FF4006005F004FA60
S315080077100398000A064981F82C01039881F82D017F
S31508007720002303AA4FF488614FF4006006E00000C6
S31508007730DE320020260600209A08002005F0ECF923
S315080077400398000AFB4981F82E01039881F82F0156
S31508007750002303AA40F233414FF4006005F0DCF938
S315080077600398000AF34981F83001039881F831013A
S31508007770002303AA40F241414FF4006005F0CCF91A
S315080077800398000AEB4981F83201039881F833011E
S31508007790002303AA4FF486614FF4006005F0BCF994
S315080077A00398000AE34981F83401039881F8350102
S315080077B0002303AA40F23E414FF4006005F0ACF9FD
S315080077C00398000ADB4981F83601039881F83701E6
S315080077D0002303AA40F231414FF4006005F09CF9FA
S315080077E00398000AD34981F83801039881F83901CA
S315080077F0002303AA40F23F414FF4006005F08CF9DC
S315080078000398000ACB4981F83A01039881F83B01AD
S31508007810002303AA40F22F414FF4006005F07CF9DB
S315080078200398000AC34981F83C01039881F83D0191
S31508007830002303AA40F23D414FF4006005F06CF9BD
S315080078400398000ABB4981F83E01039881F83F0175
S31508007850002303AA40F234414FF4006005F05CF9B6
S315080078600398000AB34981F84001039881F8410159
S31508007870002303AA40F242414FF4006005F04CF998
S315080078800398000AAB4981F84201039881F843013D
S31508007890002303AA4FF48061480005F03DF90398D8
S315080078A0000AA44981F84401039881F84501002398
S315080078B003AA40F201414FF4006005F02DF9039840
S315080078C0000A9C4981F84601039881F8470100237C
S315080078D003AA40F2F5714FF4006005F01DF903980C
S315080078E0552802D10020039001E001200390039857
S315080078F0000A904981F84801039881F84901002354
S3150800790003AA40F2F6714FF4006005F005F90398F2
S31508007910552802D10020039001E001200390039826
S31508007920000A844981F84A01039881F84B0100232B
S3150800793003AA40F2E9714FF4006005F0EDF80398E8
S31508007940000A7C4981F84C01039881F84D0100230F
S3150800795003AA40F24A414FF4006005F0DDF80398A7
S31508007960000A744981F84E01039881F84F010024F2
S3150800797009E0C4F10D007049095C04F5A8706D4A68
S315080079801154601CC4B20E2CF3DB002409E0C4F1C8
S315080079900D006A49095C04F5B070664A1154601C0A
S315080079A0C4B20E2CF3DB002424E004F58361002323
S315080079B003AA4FF4006005F0AFF80398010EA00083
S315080079C000F5B8705B4A11540398C0F30741A0004C
S315080079D000F2711011540398C0F30721A00000F5B6
S315080079E0B97011540398C1B2A00000F27310115473
S315080079F0601CC4B2082CD8DB002303AA40F2554108
S31508007A004FF4006005F088F80398000A494981F8A0
S31508007A109001039881F89101002303AA40F2564188
S31508007A204FF4006005F078F80398000A414981F898
S31508007A309201039881F89301002303AA40F2574163
S31508007A404FF4006005F068F80398000A394981F890
S31508007A509401039881F89501002303AA4FF48461E1
S31508007A604FF4006005F058F80398000E314981F884
S31508007A7096010398000C81F897010398000A81F88B
S31508007A809801039881F89901002304AA40F2D67157
S31508007A904FF4006005F040F8049803900398000E30
S31508007AA0244981F89A010398000C81F89B01FF206C
S31508007AB081F89C0181F89D01002081F89E0181F8DA
S31508007AC09F01FF2081F8A00181F8A10181F8A20198
S31508007AD081F8A301684606F087FABDF80000A0F50C
S31508007AE0FA60144981F8A6019DF8020081F8A701F9
S31508007AF09DF8030081F8A8019DF8040081F8A90102
S31508007B009DF8050081F8AA019DF8060081F8AB01E9
S31508007B10002081F8AC0181F8AD01FF2081F8AE01A3
S31508007B2081F8AF01FF222E210548FCF70DFB05B0B1
S31508007B3030BD0000DE3200201607002008070020AE
S31508007B408E3400207047000010B5002405F07CFD37
S31508007B500446C4B91B480078401C1A4908700846F0
S31508007B600078032812DD032008701748007868B9E2
S31508007B700023012240F2ED71D0020DF0F3FA012044
S31508007B801149087002E000200E490870B4B10F4888
S31508007B900078401C0D49087008460078032810DD57
S31508007BA00320087000231A4640F2ED714FF4006076
S31508007BB00DF0D8FA00200449087002E000200349B5
S31508007BC0087010BD7006002072060020710600209D
S31508007BD010B5002405F020FD0446C4B91B480078FA
S31508007BE0401C1A49087008460078032812DD03204D
S31508007BF008701748007868B90023012240F2EC7132
S31508007C00D0020DF0AFFA01201149087002E00020F9
S31508007C100E490870B4B10F480078401C0D49087029
S31508007C2008460078032810DD0320087000231A464A
S31508007C3040F2EC714FF400600DF094FA002004490C
S31508007C40087002E000200349087010BD6D06002088
S31508007C506F0600206E06002010B504460548007819
S31508007C6008F0DEFD2146044800F014F801490870C2
S31508007C7010BD00005E0800207D7C00080020034936
S31508007C800870FF2002490870704700005D08002050
S31508007C905E08002030B505460C46094805F0B6F9D9
S31508007CA00346302B09DA074840F823500021C03034
S31508007CB040F82310024840F82340184630BD00001B
S31508007CC0901B0020401D002010B5642101480AF0D1
S31508007CD0CFFD10BDE907010810B54FF47A710648C3
S31508007CE00AF0C6FD642105480AF0C2FD642104486D
S31508007CF00AF0BEFD10BD000075250108ED1D01083E
S31508007D000D4E000810B5642110480DF047FC4FF4DD
S31508007D107A710F480AF0ACFD4FF47A710D480AF0F3
S31508007D20A7FD64210C480AF0A3FD4FF4FA610B483D
S31508007D300AF09EFD4FF47A7109480AF099FD4FF44E
S31508007D407A7108480AF094FD10BD0000B95E000873
S31508007D50D96C0108315601084D6100086186000892
S31508007D6025830008E184000810B501224021034854
S31508007D7002F0FBF800200249087010BD001001400F
S31508007D80300800204FF4FA5200FB02F100BF0A1E29
S31508007D90A1F10101FBD1704738B5002000900023FE
S31508007DA06A4640F2EC714FF4006004F0B5FE0098A4
S31508007DB010B900203749087000236A4640F2D2718C
S31508007DC04FF4006004F0A8FE47F23051009888424C
S31508007DD001DD012038BD00236A4640F2D1714FF417
S31508007DE0006004F099FE0098B0F5E87F07DB2A48A2
S31508007DF0008820B92948007808B90020EAE725480C
S31508007E00007808B10020E5E700236A4640F2F571DC
S31508007E104FF4006004F080FE0098552803D02048EF
S31508007E200078012801D10020D4E709F045FC08B103
S31508007E300020CFE700241CE01A4850F8241000233D
S31508007E406A464FF4006004F067FE009855280ED184
S31508007E50144850F8240040F6C831884205D1124823
S31508007E60007810B901200B4908700020B2E7601CA1
S31508007E70C4B2052CE0D300236A4640F6C3714FF41A
S31508007E80006004F049FE009808B10020A2E701202E
S31508007E90A0E70000CC0700203E070020CA07002004
S31508007EA0CF070020ACCF0108C807002038B500204E
S31508007EB0009000236A4640F2ED714FF4006004F02A
S31508007EC02BFE009810B900202A49087000236A463C
S31508007ED040F2D2714FF4006004F01EFE47F23051B2
S31508007EE00098884201DA012038BD2248007808B196
S31508007EF00020F9E704F0C4FF18B91F4800780128E4
S31508007F0007D104F0BDFF10B100201C4908700020FD
S31508007F10EAE709F0D1FB08B10020E5E7002419E0FB
S31508007F20174850F8241000236A464FF4006004F0FE
S31508007F30F3FD009855280BD1114850F8240040F657
S31508007F40C931884202D101200A4908700020CBE7CE
S31508007F50601CC4B2052CE3D300236A4640F6C371FD
S31508007F604FF4006004F0D8FD009808B10020BBE784
S31508007F700120B9E7CB070020CF070020C90700205A
S31508007F8098CF010808B50020009000236A4640F201
S31508007F904B414FF4006004F0BFFD0098012802D061
S31508007FA0009802280CD131490098087000231A4617
S31508007FB040F24B414FF400600DF0D4F806F06EFC29
S31508007FC000236A464FF489614FF4006004F0A4FD6B
S31508007FD0009801280CD106F07BFB012808D1002364
S31508007FE01A464FF48961C0020DF0BCF806F056FC3B
S31508007FF00098A5280CD100231A464FF489614FF43E
S3150800800000600DF0AFF801201949087006F046FC2B
S315080080100098552809D100231A464FF489614FF470
S3150800802000600DF09FF806F039FC00236A4640F21E
S3150800803003414FF4006004F06FFD4FF6FF7100989E
S31508008040884202D101200B49087000236A4640F293
S31508008050F1414FF4006004F05FFD0098012804D157
S3150800806005F0CAF901200449087008BD94000020EB
S315080080708E000020150000209000002010B5FFF7A4
S3150800808015FF264908700846007801280CD12449AE
S31508008090087024480078022802D1002011F086FDD5
S315080080A001202149087019E01F48007880B1012095
S315080080B006F05AF841F2883005F095F9012011F0DA
S315080080C075FD41F2883005F08EF9002006F04CF86F
S315080080D0002015490870012011F068FD1348007842
S315080080E018B1012010F02EFC16E011F025FE80B123
S315080080F0002010F027FC0E4801780078401C0C4A36
S315080081001070642908DD00201146087009490870B6
S3150800811002E0012010F016FC10BD0000D007002078
S31508008120C907002021000020E9070020930000204D
S31508008130EA070020CE07002008B52020ADF8000089
S3150800814003208DF8020004208DF8030069460248D2
S3150800815001F02EFE08BD00000008014008B52020E9
S31508008160ADF8000003208DF8020014208DF80300F6
S315080081706946024801F01CFE08BD000000080140DF
S3150800818010B5012000F06AF806F024F910BD0000C9
S3150800819010B54FF4004000F067F850B31B4800785C
S315080081A008B31B48007803281FD01A48007801280E
S315080081B01BD119480078C0B91848007814490978BD
S315080081C0884212DA1648007801280ED105F03CFAE2
S315080081D058B9012005F0C8FF012006F007F80A2063
S315080081E01049087001E006F0F5F84FF4004000F079
S315080081F035F84FF4005000F037F828B14FF4005026
S3150800820000F02CF806F0E6F810BD000090000020FB
S315080082108C000020C90700201E00002092000020C4
S31508008220D00700209100002010B5082000F016F8AD
S3150800823006F0D0F810BD10B5102000F00FF806F0C3
S31508008240C9F810BD10B5202000F008F84FF480706A
S3150800825000F004F806F0BEF810BD000001490860F9
S315080082607047000014040140014600200022074B15
S315080082701B6803EA0102054B14331B680B4013B154
S315080082800AB1012000E00020704700000004014008
S31508008290002123498279002A3AD00A4612680368DF
S315080082A09A430B461A600A1D126803689A430B1D07
S315080082B01A60027911440A6803681A430A60184A60
S315080082C00832126803689A43154B08331A601A1D58
S315080082D0126803689A43124B0C331A604279102AC3
S315080082E00ED11A1F126803681A430D4B08331A6019
S315080082F01A1D126803681A43094B0C331A600DE0FD
S315080083000749427911440A6803681A430A6005E076
S31508008310027911440A6803689A430A6070470000A4
S31508008320000401401CB50020019000900024644818
S31508008330007858B963480078401C624908700846B6
S3150800834000781E2802DD01205D4908705C48007827
S3150800835000B91CBD002301AA40F2DF714FF400608A
S3150800836004F0DAFB00236A4640F23B414FF4006012
S3150800837004F0D2FBDDE90001441A00236A4640F204
S31508008380D2714FF4006004F0C7FB4F48006847F20B
S315080083903051081A0099884272DD142C15DA4B48B8
S315080083A00078012811D1002301AA40F2E971C00220
S315080083B004F0B2FB0198C0F57A70142190FBF1F035
S315080083C0434908600020414908704148006800B9DF
S315080083D0BFE7142094FBF0F100FB11403D4908600B
S315080083E0002301AA40F2E9714FF4006004F094FBFF
S315080083F0142C4ADA40F2E7310198884245DA3548C2
S3150800840000683549096888423FD0324800683249D1
S315080084100860304800682E4909684843C0F57A70F4
S3150800842040F2E73188422CDA2A4800682849096868
S315080084304843C0F57A700199884226DD25480068C8
S31508008440234909684843C0F57A700199401A2349B7
S315080084500860084600681E490968884206DD1C4A05
S315080084600199126888180DF0B9F80EE019490968DB
S31508008470174A12685143C1F57A700DF0AFF804E057
S3150800848016E040F2E7300DF0A9F8002301AA40F201
S31508008490E9714FF4006004F03FFB022C0EDA0198F4
S315080084A0B0F57A7F0ADA40F2E7300DF097F805E082
S315080084B001200649087000200549086000BF48E702
S315080084C02300002022000020FC0700202D000020A9
S315080084D03800002030000020340000203C00002036
S315080084E01CB500200190009000245448007858B923
S315080084F053480078401C52490870084600781E28E0
S3150800850002DD01204D4908704C48007800B91CBDB1
S31508008510002301AA40F2D1714FF4006004F0FCFA7E
S3150800852000236A4640F6B9314FF4006004F0F4FAC5
S31508008530DDE90010884203DC012042490870E6E7BD
S31508008540DDE90010441A00236A4640F2D2714FF45E
S31508008550006004F0E1FA3C48006847F230510844EC
S315080085600099884262DA64204443B4F5FA6F14DA53
S3150800857034480078012810D10023344A40F2E971C2
S31508008580C00204F0C9FA31480068642190FBF1F092
S315080085902F49086000202B4908702D48006800B94B
S315080085A0B5E7142094FBF0F02A490860002301AAD5
S315080085B040F2E9714FF4006004F0AEFAB4F5FA6FD0
S315080085C03ADA0198002837DD22480068224908600F
S315080085D0204800681E490968484300282CDD1D48C4
S315080085E000681B49096848430199884224DA1949F1
S315080085F001980968164A126801FB120017490860B3
S315080086000846006812490968884206DD104A019939
S315080086101268881A0CF0E2FF0EE00E4909680C4A47
S31508008620126801FB02F00CF0D9FF05E001200549AC
S31508008630087000200649086000BF68E7250000208A
S315080086402400002026000020FC07002050000020FF
S315080086504800002040000020440000204C00002074
S315080086602DE9F0411048006810490968451A002D9F
S3150800867000DA6D4201F0C8FE044647F230508442E3
S3150800868010DA071B95FBF7F6C6EB06108000642187
S3150800869090FBF1F60023324640F2EA714FF400608F
S315080086A00CF060FDBDE8F0818C07002088070020EB
S315080086B07CB50446002001900090002540F6A9707C
S315080086C0FEF77EF840B1A07820F00300401CA070A9
S315080086D001203A490870102540F6AA70FEF770F88E
S315080086E040B1A07820F00300401CA0700120334957
S315080086F00870112540F6AC70FEF762F840B1A07814
S3150800870020F00300401CA07001202C490870122597
S3150800871040F6AD70FEF754F840B1A07820F003009B
S31508008720401CA0700120254908701325002301AAC2
S3150800873040F2D1714FF4006004F0EEF900236A4666
S315080087404FF4FC614FF4006004F0E6F940F2DC51A6
S315080087500098884202DB0198322814DA1848007813
S31508008760401C17490870084600780A280EDD0A20BA
S315080087700870E07820F00C00001DE07001200F4919
S315080087800870172502E000200D49087040F6A4700D
S31508008790FEF716F818B1012008490870342507486D
S315080087A00078012806D100232A4640F2EB71C00260
S315080087B00CF0D8FC014800787CBD00007306002048
S315080087C0740600200549096821F01001034A116062
S315080087D011460968014311607047000000200240F5
S315080087E001460020034A106800F03800084310606C
S315080087F0704700000020024010B5002220210748DB
S3150800880001F0B3FB01224021044801F0AEFB00222F
S315080088104021024801F0A9FB10BD000000080140F4
S315080088202DE9F04105460E46174601200FF025FDB5
S3150800883000F084F8A02000F0FBF807F00BFB38B92D
S3150800884000F094F800200FF018FD0020BDE8F08134
S31508008850301200F0EDF807F0FDFA30B900F086F8AE
S3150800886000200FF00AFD0020F0E7F0B200F0E0F873
S3150800887007F0F0FA30B900F079F800200FF0FDFCA7
S315080088800020E3E700F05AF8A12000F0D1F807F03D
S31508008890E1FA30B900F06AF800200FF0EEFC00208B
S315080088A0D4E700241AE000F025F805F8010B781E35
S315080088B0A0420FD1012220210D4801F056FB0122CA
S315080088C040210B4801F051FB00224021084801F0E5
S315080088D04CFB01E0FFF790FF601C84B2BC42E2DB70
S315080088E000F044F800200FF0C8FC0120AEE70000B5
S315080088F00008014070B50024FFF71EFC002515E0AE
S315080089006006040E012240210B4801F02EFB2021AF
S31508008910094801F021FB012801DB44F0010400228B
S315080089204021054801F021FB681CC5B2082DE7DB8C
S31508008930FFF714FC204670BD0008014010B501225F
S315080089404021094801F011FB01222021064801F0C7
S315080089500CFB00222021044801F007FB00224021DD
S31508008960014801F002FB10BD0008014010B50022C5
S315080089702021074801F0F9FA01224021044801F0B4
S31508008980F4FA01222021024801F0EFFA10BD000096
S31508008990000801402DE9F04104460D46174601201E
S315080089A00FF06BFCFFF7CAFFA02000F041F807F0B4
S315080089B051FA38B9FFF7DAFF00200FF05EFC002005
S315080089C0BDE8F081281200F033F807F043FA30B911
S315080089D0FFF7CCFF00200FF050FC0020F0E7E8B2CC
S315080089E000F026F807F036FA30B9FFF7BFFF002087
S315080089F00FF043FC0020E3E700260FE014F8010B14
S31508008A0000F016F807F026FA30B9FFF7AFFF002096
S31508008A100FF033FC0020D3E7701C86B2BE42EDDBB4
S31508008A20FFF7A4FF00200FF028FC0120C8E700008C
S31508008A3070B5044600251CE004F080066006040EA6
S31508008A40802E05D1012220210B4801F08EFA04E080
S31508008A5000222021084801F088FA01224021064810
S31508008A6001F083FA00224021034801F07EFA681CCF
S31508008A70C5B2082DE0DB70BD000801400EB5002028
S31508008A8002905720019000200090002302AA4FF47C
S31508008A90FF614FF4006004F03FF8002301AA40F29A
S31508008AA04A414FF4006004F037F800236A464FF451
S31508008AB07B614FF4006004F02FF8009888B100231A
S31508008AC01A4640F6AE714FF400600CF04BFB2F4887
S31508008AD0007800F0DF002D49087007200FF032FFFC
S31508008AE00EBDDDE9011088420FDB29480078401CDD
S31508008AF027490870002027490870254800781E284D
S31508008B0017DB1E202249087013E00298C01C019941
S31508008B1088420EDC1F480078401C1E490870002059
S31508008B201B4908701B4800781E2802DB1E201949BD
S31508008B300870002302AA40F6AE714FF4006003F0F5
S31508008B40EBFF15480078A8B1144801880088401C36
S31508008B50124A1080B1F5167F02DD00200E49087012
S31508008B6006200FF0EFFE0948007840F0200007497C
S31508008B70087009E00298012803D106200FF0E2FEEA
S31508008B8002E007200FF0DEFE00BFA9E7560000202E
S31508008B90F1070020F20700204607002048070020BA
S31508008BA070B504460D46262D76D2DFE805F0751316
S31508008BB03451585F7D9AB7F1EFEEEDECEBEAE9E850
S31508008BC0E7E6E5E4E3E2E1E0DFDEDDDCDBDAD9D89F
S31508008BD0D7D6D5D411F02EFB064611F007FB06436F
S31508008BE03EB1F048007820F00300801CED4908707B
S31508008BF010E04CB1022C00DD0224EA48007864F348
S31508008C000100E849087005E0E648007820F003000E
S31508008C10E4490870C4E111F031FB38B1E148007845
S31508008C2020F00C000830DF49087010E04CB1022C27
S31508008C3000DD0224DB48007864F38300D949087014
S31508008C4005E0D848007820F00C00D6490870A7E15E
S31508008C50D448007864F30510D2490870A0E1D148D9
S31508008C60007864F38710CF49087099E111F00AFA81
S31508008C7038B1CC48407820F00300801CC9494870B8
S31508008C8011E054B1022C00DD0224C648407864F392
S31508008C900100C449487006E081E1C248407820F0E6
S31508008CA00300C04948707BE111F010FA38B1BD489D
S31508008CB0407820F00C000830BA49487010E04CB1F2
S31508008CC0022C00DD0224B748407864F38300B549D6
S31508008CD0487005E0B348407820F00C00B149487068
S31508008CE05EE111F017FA38B1AE48407820F030004E
S31508008CF02030AC49487010E04CB1022C00DD02244B
S31508008D00A848407864F30510A649487005E0A548C8
S31508008D10407820F03000A349487041E111F01EFA6E
S31508008D2038B1A048407820F0C00080309D4948708E
S31508008D3010E04CB1022C00DD02249A48407864F316
S31508008D4087109849487005E09648407820F0C0009A
S31508008D509449487024E11BE113E10BE101E1EDE0E0
S31508008D60E5E0DDE0D5E0CDE0C5E0BDE0ABE0A3E0C1
S31508008D709BE093E08BE083E07BE073E071E069E0E1
S31508008D8067E05FE057E04FE047E03FE01DE0FFE7C0
S31508008D9011F098FA38B18348807820F00300801CD7
S31508008DA08049887010E04CB1022C00DD02247D4811
S31508008DB0807864F301007B49887005E079488078FB
S31508008DC020F0030077498870EAE011F0EDFA0646CC
S31508008DD011F00EFB06433EB17248807820F00C0075
S31508008DE008307049887010E04CB1022C00DD02246E
S31508008DF06C48807864F383006A49887005E069489E
S31508008E00807820F00C0067498870C9E0654880784A
S31508008E1064F3051063498870C2E06248807864F399
S31508008E20871060498870BBE05E48C07864F301002B
S31508008E305C49C870B4E05B48C07864F3830059495C
S31508008E40C870ADE05748007964F3000055490871C9
S31508008E50A6E0A5E05348007964F3820051490871F9
S31508008E609EE000BF4F48007964F304104D4908712D
S31508008E7096E04C48007964F345104A4908718FE03A
S31508008E804848007964F386104649087188E04548E1
S31508008E90007964F3C7104349087181E04148407975
S31508008EA064F300003F4948717AE03E48407964F32C
S31508008EB041003C49487173E03A48407964F38200BE
S31508008EC0384948716CE034B13648407964F3C300D8
S31508008ED03449487107E012F093F93249497960F349
S31508008EE0C3013048417100BF2E48407920F0100078
S31508008EF02C49487154E02B48407964F345102949B8
S31508008F0048714DE02748407964F386102549487131
S31508008F1046E02448407964F3C710224948713FE087
S31508008F202048807964F300001E49887138E01D489E
S31508008F30807964F341001B49887131E011F0E6F944
S31508008F4000B93CB11748807920F00400001D154986
S31508008F50887105E01348807920F00400114988716A
S31508008F601EE011F01FF90F49897960F3C3010D4816
S31508008F70817115E00B48807964F3041009498871FA
S31508008F800EE00848807964F386100649887107E080
S31508008F900448807964F3C7100249887100E000BF6D
S31508008FA000BF70BD2C07002010B5314800780A288C
S31508008FB016DB00202E49087000F0E0FD00F0FAFDEF
S31508008FC000F020FE00F0D8FA00F0F4FA00F012FBE8
S31508008FD000F030FB27480088012801D100F056FB35
S31508008FE023484078322806DB00F056F90DF032FFA8
S31508008FF000201F4948701E48C0781E280CDB00F068
S3150800900043F800F0DDF900F07DFC00F0E5FC00F027
S31508009010FBFC00201649C87015488078642802DBD6
S3150800902000201349887012480079642804DB002060
S315080090300F490871104908700D484079642804DB07
S3150800904000200B4948710D49087009488079642841
S3150800905002DB0020064988710548C079642806DBCA
S3150800906000200349C871064908700649087010BDF2
S3150800907024070020420700204E0800203008002060
S315080090803A0800208F0800202DE9FC47002301AA92
S3150800909040F2FA314FF4006003F03EFD0A210198D0
S315080090A090FBF1F001900198C1B2774880F88510DD
S315080090B00198010A744880F88610002301AA40F234
S315080090C0FB314FF4006003F027FD0A21019890FB5D
S315080090D0F1F001900198C1B26B4880F887100198A9
S315080090E0010A694880F88810002301AA4FF47F71A5
S315080090F04FF4006003F010FD0198FBF750F906469F
S31508009100624A634BFBF7D9F804460022614BFBF72A
S315080091102DF88046FBF754F901900198C1B25A48D8
S3150800912080F88910002301AA40F2DE714FF400602E
S3150800913003F0F2FC0198282803DB01980A30019015
S3150800914005E00198C0F12800C0F1320001900198AD
S31508009150C1B24D4880F88A10002180F88B10002390
S3150800916001AA40F6A7714FF4006003F0D5FC00236E
S315080091706A4640F6A6714FF4006003F0CDFC0198EC
S3150800918030B9009820B901213F4880F85B101EE0ED
S315080091900198022804D102213B4880F88B1016E07A
S315080091A00198012804D10321374880F88B100EE076
S315080091B00098012804D10421334880F88B1006E072
S315080091C00098022803D105212F4880F88B10002328
S315080091D001AA40F6A1714FF4006003F09DFC00233C
S315080091E06A464FF47A614FF4006003F095FC0198E3
S315080091F008B9009810B30198022808D1224890F8B7
S315080092008B0040F00801204880F88B1016E0019882
S31508009210012808D11C4890F88B0040F010011A4824
S3150800922080F88B100AE00098012807D1164890F8B4
S315080092308B0040F01801144880F88B10002301AA0F
S3150800924040F6A8714FF4006003F066FC0198012807
S3150800925008D10D4890F88B0040F040010A4880F884
S315080092608B100AE00198022807D1074890F88B006E
S3150800927040F08001044880F88B100021024880F8ED
S315080092808C10BDE8FC870000FC0D00209A9999997E
S315080092909999B93F0000E03F2DE9FF47002301AA4D
S315080092A040F2E9714FF4006003F036FC6E21019834
S315080092B048430390DDF80CA0002302AA40F2F631D9
S315080092C04FF4006003F028FC00236A4640F2D1718F
S315080092D04FF4006003F020FCDDE9011048434FF429
S315080092E07A7190FBF1F0009948430290DDE902019A
S315080092F090FBF1F000EB8000400003902C490398A6
S3150800930048710398010A2A48817164209AFBF0FA89
S31508009310274880F807A04FEA1A210172002303AAFA
S3150800932040F2FE314FF4006003F0F6FB0398C1B239
S315080093301F4841720398010A1D488172002303AA37
S3150800934040F2D2714FF4006003F0E6FB47F2305169
S315080093500398884204DB00211548C172017324E092
S3150800936047F230510398081A03900398002802DA46
S315080093700398404203900398FBF711F806460D4AF6
S315080093800D4BFAF79AFF044600220C4BFAF795FFA5
S315080093908046FBF715F803900398C1B20448C172DA
S315080093A00398C0F3032102480173BDE8FF87000054
S315080093B0FC0D00209A9999999999B93F000059404E
S315080093C038B500246A484078C0F38100022801DBDA
S315080093D044F0010466484078C0F38100012801D1B1
S315080093E044F002046248407800F00300012801D1E5
S315080093F044F004045E48407800F00300022801DBCC
S3150800940044F008045A4840780221B1EB901F01DC69
S3150800941044F01004564840780121B1EB901F01D161
S3150800942044F0200452484078C0F30110012801D1C5
S3150800943044F040044E484078C0F30110022801DB8E
S3150800944044F080044B4880F895400024484800784A
S31508009450C0F38100022801DB44F001044448007887
S31508009460C0F38100012801D144F002044048007885
S3150800947000F00300012801D144F004043C480078B8
S3150800948000F00300022801DB44F00804384800789D
S315080094900221B1EB901F01DC44F010043448007837
S315080094A00121B1EB901F01D144F020043048007827
S315080094B0C0F30110012801D144F040042C4800787B
S315080094C0C0F30110022801DB44F08004294880F823
S315080094D0964000242648C07800F00300012801D1F0
S315080094E044F001042248C07800F00300022801DB9A
S315080094F044F002041E48807800F00300012801D1D8
S3150800950044F004041A48807800F00300022801DBBE
